{
  "contractName": "MhngTokenSale",
  "abi": [
    {
      "inputs": [
        {
          "internalType": "contract MhngToken",
          "name": "_tokenContract",
          "type": "address"
        }
      ],
      "payable": false,
      "stateMutability": "nonpayable",
      "type": "constructor"
    },
    {
      "constant": true,
      "inputs": [],
      "name": "tokenContract",
      "outputs": [
        {
          "internalType": "contract MhngToken",
          "name": "",
          "type": "address"
        }
      ],
      "payable": false,
      "stateMutability": "view",
      "type": "function"
    }
  ],
  "bytecode": "0x608060405234801561001057600080fd5b506040516101a43803806101a48339818101604052602081101561003357600080fd5b8101908080519060200190929190505050336000806101000a81548173ffffffffffffffffffffffffffffffffffffffff021916908373ffffffffffffffffffffffffffffffffffffffff16021790555080600160006101000a81548173ffffffffffffffffffffffffffffffffffffffff021916908373ffffffffffffffffffffffffffffffffffffffff1602179055505060d0806100d46000396000f3fe6080604052348015600f57600080fd5b506004361060285760003560e01c806355a373d614602d575b600080fd5b60336075565b604051808273ffffffffffffffffffffffffffffffffffffffff1673ffffffffffffffffffffffffffffffffffffffff16815260200191505060405180910390f35b600160009054906101000a900473ffffffffffffffffffffffffffffffffffffffff168156fea265627a7a7231582025ba5ec9ed7d941d48c9368ea3441497c9d6d29b859d8471e77ea994c53fd76964736f6c63430005100032",
  "source": "pragma solidity ^0.5.16;\n\nimport \"./MhngToken.sol\";\n\ncontract MhngTokenSale {\n  address admin;\n  MhngToken public tokenContract;\n\n  constructor(MhngToken _tokenContract) public {\n    admin = msg.sender;\n    tokenContract = _tokenContract;\n  }\n}",
  "sourcePath": "/Users/apple/Documents/Ethereum/MHNG_sale/contracts/MhngTokenSale.sol",
  "compiler": {
    "name": "solc",
    "version": "0.5.16+commit.9c3226ce.Emscripten.clang"
  },
  "schemaVersion": "3.4.0",
  "updatedAt": "2021-07-15T03:28:33.959Z",
  "networkType": "ethereum",
  "devdoc": {
    "methods": {}
  },
  "userdoc": {
    "methods": {}
  }
}