{
  "contractName": "MhngToken",
  "abi": [
    {
      "inputs": [
        {
          "internalType": "uint256",
          "name": "_initialSupply",
          "type": "uint256"
        }
      ],
      "payable": false,
      "stateMutability": "nonpayable",
      "type": "constructor"
    },
    {
      "constant": true,
      "inputs": [],
      "name": "totalSupply",
      "outputs": [
        {
          "internalType": "uint256",
          "name": "",
          "type": "uint256"
        }
      ],
      "payable": false,
      "stateMutability": "view",
      "type": "function"
    }
  ],
  "bytecode": "0x608060405234801561001057600080fd5b506040516100de3803806100de8339818101604052602081101561003357600080fd5b8101908080519060200190929190505050806000819055505060848061005a6000396000f3fe6080604052348015600f57600080fd5b506004361060285760003560e01c806318160ddd14602d575b600080fd5b60336049565b6040518082815260200191505060405180910390f35b6000548156fea265627a7a7231582040fbd98568847310663e45d99bb84c158239251e9e4b0195a8ca69201ac4a16f64736f6c63430005100032",
  "source": "pragma solidity ^0.5.16;\n\ncontract MhngToken {\n  uint256 public totalSupply;\n\n  // Initialize the number of tokens available\n  // Contructor\n  constructor(uint256 _initialSupply) public {\n    totalSupply = _initialSupply;     // state variables\n  }\n  \n\n  // Set the number of token\n  // Read the number of token\n}",
  "sourcePath": "/Users/apple/Documents/Ethereum/MHNG_sale/contracts/MhngToken.sol",
  "compiler": {
    "name": "solc",
    "version": "0.5.16+commit.9c3226ce.Emscripten.clang"
  },
  "schemaVersion": "3.4.0",
  "updatedAt": "2021-07-13T13:49:28.472Z",
  "devdoc": {
    "methods": {}
  },
  "userdoc": {
    "methods": {}
  }
}