{
  "contractName": "MhngToken",
  "abi": [
    {
      "inputs": [],
      "payable": false,
      "stateMutability": "nonpayable",
      "type": "constructor"
    },
    {
      "constant": true,
      "inputs": [],
      "name": "totalSupply",
      "outputs": [
        {
          "internalType": "uint256",
          "name": "",
          "type": "uint256"
        }
      ],
      "payable": false,
      "stateMutability": "view",
      "type": "function"
    }
  ],
  "bytecode": "0x6080604052348015600f57600080fd5b50620f42406000819055506084806100286000396000f3fe6080604052348015600f57600080fd5b506004361060285760003560e01c806318160ddd14602d575b600080fd5b60336049565b6040518082815260200191505060405180910390f35b6000548156fea265627a7a723158200a632bd78e16df7e997b646a3e26583d40f79231862fe0ad70647db74f731c2e64736f6c63430005100032",
  "source": "pragma solidity ^0.5.16;\n\ncontract MhngToken {\n  uint256 public totalSupply;\n\n  // Initialize the number of tokens available\n  // Contructor\n  constructor() public {\n    totalSupply = 1000000;     // state variables\n  }\n  \n\n\n  // Set the number of token\n  // Read the number of token\n}",
  "sourcePath": "/Users/apple/Documents/Ethereum/MHNG_sale/contracts/MhngToken.sol",
  "compiler": {
    "name": "solc",
    "version": "0.5.16+commit.9c3226ce.Emscripten.clang"
  },
  "schemaVersion": "3.4.0",
  "updatedAt": "2021-07-13T13:19:43.052Z",
  "networkType": "ethereum",
  "devdoc": {
    "methods": {}
  },
  "userdoc": {
    "methods": {}
  }
}